:020000040800F2
:1000000000000220CD150008510800085308000820
:1000100055080008570800085908000800000000AB
:100020000000000000000000000000005B08000865
:100030005D080008000000005F0800086108000873
:100040001D1600081D1600081D1600081D160008C4
:100050001D1600081D1600081D1600081D160008B4
:100060001D1600081D1600081D1600081D160008A4
:100070001D1600081D1600081D1600081D16000894
:100080001D1600081D1600081D16000800000000BF
:100090000000000000000000000000001D16000825
:1000A0001D16000869080008790800081D160008D8
:1000B0001D1600081D1600081D1600081D16000854
:1000C0001D1600081D1600081D1600081D16000844
:1000D0001D1600081D1600081D160008000000006F
:1000E0001D1600081D1600081D160008000000005F
:1000F0000000000000000000000000001D160008C5
:10010000000000001D1600081D1600081D1600083E
:1001100000000000000000000000000000000000DF
:100120001D1600081D1600081D1600081D160008E3
:100130001D16000800000000000000000000000084
:100140000000000000000000000000001D16000874
:100150001D1600081D1600081D1600081D160008B3
:100160001D1600081D160008000000000000000019
:10017000000000000000000000000000000000007F
:10018000000000001D160008000000000000000034
:080190001D1600081D160008F1
:1001980010B5054C237833B9044B13B10448AFF3B9
:1001A80000800123237010BD0C0000200000000017
:1001B8007816000808B5034B1BB103490348AFF391
:1001C800008008BD0000000010000020781600081C
:1001D80053B94AB9002908BF00281CBF4FF0FF31A6
:1001E8004FF0FF3000F072B9ADF1080C6DE904CEA4
:1001F80000F006F8DDF804E0DDE9022304B07047FA
:100208002DE9F047089E04468846002B4BD18A42C8
:10021800154667D9B2FA82F24AB1C2F1200701FA4B
:1002280002F320FA07F7954047EA030894404FEA9B
:10023800154E230CB8FBFEF71FFA85FC0EFB17883A
:1002480043EA084307FB0CF1994209D9EB1807F177
:10025800FF3080F01B81994240F21881023F2B4405
:100268005B1AA4B2B3FBFEF00EFB103344EA03445E
:1002780000FB0CFCA44509D92C1900F1FF3380F0D0
:100288000781A44540F2048102382C4440EA074023
:10029800A4EB0C0400271EB1D4400023C6E9004398
:1002A8003946BDE8F0878B4209D9002E00F0EB8073
:1002B8000027C6E9000138463946BDE8F087B3FA99
:1002C80083F7002F47D18B4202D3824200F2FA8093
:1002D800841A61EB030301209846002EE0D0C6E99A
:1002E8000048DDE702B9FFDEB2FA82F2002A40F0E8
:1002F8008F80491B4FEA154E1FFA85F80127B1FB7D
:10030800FEFC230C0EFB1C1143EA014308FB0CF115
:10031800994207D9EB180CF1FF3002D2994200F24A
:10032800CD808446591AA3B2B1FBFEF00EFB10141F
:1003380043EA044408FB00F8A04507D92C1900F14A
:10034800FF3302D2A04500F2B6801846A4EB080499
:1003580040EA0C409FE7C7F1200CBB4022FA0CFE94
:100368004EEA030E01FA07F420FA0CF521FA0CF311
:100378004FEA1E482543B3FBF8F92C0C08FB193348
:100388001FFA8EFA44EA034309FB0AF49C4202FA74
:1003980007F200FA07F10BD91EEB030309F1FF304E
:1003A80080F087809C4240F28480A9F1020973445E
:1003B8001B1BADB2B3FBF8F008FB103345EA03444E
:1003C80000FB0AFAA24508D91EEB040400F1FF332A
:1003D8006BD2A24569D90238744440EA0940A0FBAF
:1003E8000289A4EB0A044C45C2464B4654D351D06B
:1003F800002E69D0B1EB0A0564EB030404FA0CFC87
:10040800FD40FC404CEA0505C6E90054002747E7D3
:10041800C2F1200320FA03F7954001FA02F021FA0D
:1004280003F34FEA154E3843010CB3FBFEF71FFAEE
:1004380085F80EFB173341EA034107FB08F38B42AB
:1004480004FA02F407D9691807F1FF3C2FD28B424E
:100458002DD9023F2944CB1A81B2B3FBFEF00EFB23
:10046800103341EA034100FB08F38B4207D96918AE
:1004780000F1FF3C17D28B4215D902382944C91A1A
:1004880040EA07473BE73746304609E70746E7E6CD
:100498001846FBE64145ABD2B8EB020A69EB0E02FF
:1004A80001381346A4E76046E9E7184695E767462A
:1004B800D1E781467CE702382C4447E7ACF1020CCF
:1004C8002B442FE7384608E73746E9E6704700BF70
:1004D8001154044B1B78834201D2024B187001203F
:1004E800704700BF280000201154431CC1F30721A6
:1004F800D154044A1278934202DD1846014B187011
:10050800012070472800002010B41154431CC1F387
:100518000724D454831CC1F30744D454C31CC1F327
:100528000761D154054A1278934202DD1846034BFD
:10053800187001205DF8044B704700BF28000020A8
:10054800024B197058700120704700BF2C00002022
:100558002DE9F0438BB00024059406940794089481
:1005680009940194364B1A6B42F004021A631A6B11
:1005780002F004020192019A02941A6B42F080027E
:100588001A631A6B02F080020292029A03941A6BA1
:1005980042F001021A631A6B02F001020392039AF5
:1005A80004941A6B42F002021A631B6B03F00203F5
:1005B8000493049B234F224640F20F21384600F053
:1005C80069FBDFF8849022464FF47F61484600F0CB
:1005D80061FBDFF8788022464FF47041404600F016
:1005E80059FB4FF4005305934FF4041306930794F3
:1005F80005A9384600F076FA40F20F230593012644
:10060800069607940225089505A9384600F06AFA67
:100618004FF47F63059306960794089505A9484605
:1006280000F060FA4FF47043059306960794089516
:1006380005A9404600F056FA0BB0BDE8F08300BFAC
:100648000038024000080240000002400004024056
:1006580008B50268114B9A4200D008BD104A1378B9
:100668000133DBB213700F4A1278934202D90C4B54
:1006780000221A7000224FF6FF710B4800F00AFBA7
:1006880000224FF6FF71094800F004FB00224FF6E4
:10069800FF71074800F0FEFADFE700BF00440140A1
:1006A8003402002028000020000802400000024018
:1006B8000004024072B6FEE700B595B03022002172
:1006C80008A800F0CDFF0023039304930593069335
:1006D800079301931E4A116C41F080511164126C0A
:1006E80002F080520192019A02931A4A116841F469
:1006F80040411160126802F440420292029A0222BA
:10070800089201210B9110210C910E920F9308234E
:1007180010936423119312920423139308A800F0F2
:10072800BFFA88B90F230393022304930023059388
:100738004FF4805206920793032103A800F018FD96
:1007480020B915B05DF804FBFFF7B4FFFFF7B2FF5F
:10075800003802400070004008B500F02DF9FFF79E
:10076800ABFFFFF7F5FE00F095F800F0ADF81D4877
:1007780000F0AEFD1C4800F0ABFD1C4C22460F21DA
:100788000320FFF7A5FE224640F6AA211120FFF715
:10079800ABFE22461649BD20FFF7B6FE154B18786A
:1007A800124B195CFFF7CCFE134C2178134D012234
:1007B80001F00F01284600F06DFA2188012201F4AA
:1007C8007F610F4800F066FA617809090122090380
:1007D8000C4800F05FFA01224FF40071284600F03F
:1007E80059FADBE73802002080020020340000209C
:1007F800FA0F3CC3340200202C00002000080240FD
:10080800000002400004024000B583B000210091BE
:100818000C4B5A6C42F480425A645A6C02F480427F
:100828000092009A01911A6C42F080521A641B6C73
:1008380003F080530193019B072000F0E9F803B00F
:100848005DF804FB00380240FEE7FEE7FEE7FEE73E
:10085800FEE770477047704708B500F0C7F808BD55
:1008680008B5024800F074FD08BD00BF380200203A
:1008780008B5024800F06CFD08BD00BF80020020EA
:10088800034AD2F8883043F47003C2F888307047BE
:1008980000ED00E008B50A480A4B036014234360E2
:1008A800002383604FF4FA62C2600361802383618E
:1008B80000F05AFE00B908BDFFF7FCFEFBE700BFD9
:1008C800380200200044014008B50A480A4B03607A
:1008D80014234360002383604FF47A62C26003618B
:1008E8008023836100F040FE00B908BDFFF7E2FEF7
:1008F800FBE700BF800200200048014000B583B03C
:100908000368184A934205D0174A934216D003B099
:100918005DF804FB00210091144B5A6C42F400323C
:100928005A645B6C03F400330093009B0A46192059
:1009380000F080F8192000F0B1F8E8E700210191F3
:100948000A4B5A6C42F480225A645B6C03F480238D
:100958000193019B0A461A2000F06CF81A2000F057
:100968009DF8D4E7004401400048014000380240A7
:1009780010B504460E4B18784FF47A73B3FBF0F3B6
:100988000C4A1068B0FBF3F000F096F868B90F2C29
:1009980001D901200AE0002221464FF0FF3000F083
:1009A80049F8034B5C60002000E0012010BD00BF47
:1009B800040000200000002008B50B4B1A6842F420
:1009C80000721A601A6842F480621A601A6842F467
:1009D80080721A60032000F01BF80020FFF7C8FFA0
:1009E800FFF712FF002008BD003C0240034A1168CF
:1009F800034B1B780B441360704700BFC8020020EC
:100A080004000020014B1868704700BFC80200208E
:100A1800074AD36823F4E0631B041B0C000200F4AC
:100A2800E060184340F0BF6040F40030D060704789
:100A380000ED00E030B4174BDB68C3F30223C3F1C9
:100A48000704042C28BF04241D1D062D18D9033BB8
:100A58004FF0FF3505FA04F421EA0401994005FA3C
:100A680003F322EA0303194300280BDB0901C9B287
:100A780000F1604000F5614080F8001330BC704719
:100A88000023E5E700F00F000901C9B2024B195431
:100A9800F4E700BF00ED00E014ED00E0002807DBFC
:100AA80000F01F02400901239340024A42F8203017
:100AB800704700BF00E100E00138B0F1807F0AD242
:100AC800064B5860064AF02182F8231000209860EF
:100AD80007221A6070470120704700BF10E000E04D
:100AE80000ED00E000230F2B00F2CA80F0B482B0C2
:100AF8005DE086685F000324BC4026EA0406CC68F3
:100B0800BC4034438460466826EA02064C68C4F355
:100B180000129A403243426056E0DC08083450F82C
:100B2800247003F0070296000F22B24027EA02075A
:100B38000A69B2403A4340F8242059E0042200E010
:100B48000022B2403A4302344E4E46F824204E4A20
:100B58001468EA4302EA04064F6817F4803F01D09C
:100B680045EA0406484C2660646802EA04064F68B1
:100B780017F4003F01D045EA0406434C6660A468B8
:100B880002EA04064F6817F4801F01D045EA0406FC
:100B98003D4CA660E46822404E6816F4001F01D060
:100BA80045EA0402384CE26001330F2B65D8012274
:100BB8009A400C6804EA0205AA42F5D14C6804F090
:100BC8000304013C012C94D94A6802F00302032A69
:100BD80009D0C4685E000322B24024EA02048A688D
:100BE800B2402243C2604A6802F00302022A94D04B
:100BF80004685E000322B24024EA02044A6802F054
:100C08000302B240224302604A6812F4403FCBD04C
:100C1800002201921D4A546C44F480445464526C7E
:100C280002F480420192019A9C08A61C154A52F8C7
:100C3800267003F0030296000F22B24027EA02074B
:100C4800134A90423FF47CAF02F5806290420ED086
:100C580002F5806290420CD002F5806290420AD080
:100C680002F5806290423FF469AF072269E70122EA
:100C780067E7022265E7032263E702B0F0BC70472A
:100C8800704700BF00380140003C01400038024076
:100C98000000024012B90904816170478161704700
:100CA800002800F0E98170B582B00446036813F0AB
:100CB800010F3BD0A74B9B6803F00C03042B2CD0EF
:100CC800A44B9B6803F00C03082B21D06368B3F591
:100CD800803F4FD0B3F5A02F52D09E4B1A6822F414
:100CE80080321A601A6822F480221A606368002B26
:100CF80050D0FFF787FE0546964B1B6813F4003F5C
:100D080014D1FFF77FFE401B6428F5D90320B8E112
:100D1800904B5B6813F4800FD8D08E4B1B6813F48C
:100D2800003F03D06368002B00F0A881236813F00C
:100D3800020F55D0874B9B6813F00C0F3ED0854BA4
:100D48009B6803F00C03082B33D0E368002B68D0B2
:100D5800814B01221A60FFF755FE05467D4B1B6843
:100D680013F0020F54D1FFF74DFE401B0228F5D9AE
:100D7800032086E1774A136843F480331360B5E7AC
:100D8800744B1A6842F480221A601A6842F480325E
:100D98001A60ABE7FFF736FE05466E4B1B6813F487
:100DA800003FC3D0FFF72EFE401B6428F5D903206F
:100DB80067E1684B5B6813F4800FC6D1654B1B680D
:100DC80013F0020F04D0E368012B01D0012058E191
:100DD800604A136823F0F803216943EAC1031360EA
:100DE800236813F0080F40D0636963B35B4B01229B
:100DF8001A60FFF707FE0546564B5B6F13F0020FAC
:100E080033D1FFF7FFFD401B0228F5D9032038E155
:100E1800504A136823F0F803216943EAC1031360B9
:100E2800DEE74D4B00221A60FFF7ECFD0546494B03
:100E38001B6813F0020FD3D0FFF7E4FD401B022814
:100E4800F5D903201DE1454B00221A60FFF7DAFDB2
:100E58000546404B5B6F13F0020F06D0FFF7D2FD3B
:100E6800401B0228F5D903200BE1236813F0040F77
:100E780079D0384B1B6C13F0805F33D1002301937A
:100E8800344B1A6C42F080521A641B6C03F0805386
:100E98000193019B0125324B1B6813F4807F23D0FB
:100EA800A368012B34D0052B38D02A4B1A6F22F0B7
:100EB80001021A671A6F22F004021A67A368002B4E
:100EC80036D0FFF79FFD0646224B1B6F13F0020F2B
:100ED80048D1FFF797FD801B41F288339842F3D938
:100EE8000320CEE00025D6E71D4A136843F480733B
:100EF8001360FFF787FD0646194B1B6813F4807FC4
:100F0800CED1FFF77FFD801B0228F5D90320B8E07A
:100F1800104A136F43F001031367CFE70D4B1A6FA5
:100F280042F004021A671A6F42F001021A67C5E715
:100F3800FFF768FD0646074B1B6F13F0020F11D031
:100F4800FFF760FD801B41F288339842F3D90320F4
:100F580097E000BF0038024000004742800E474239
:100F680000700040EDB9A369002B00F08980484A61
:100F7800926802F00C02082A51D0022B17D0454B78
:100F880000221A60FFF73EFD0446414B1B6813F030
:100F9800007F42D0FFF736FD001B0228F5D9032059
:100FA8006FE03B4A136C23F080531364DBE7394B43
:100FB80000221A60FFF726FD0546354B1B6813F023
:100FC800007F06D0FFF71EFD401B0228F5D903203D
:100FD80057E0E369226A1343626A43EA8213A26A0A
:100FE8005208013A43EA0243E26A43EA0263284AA2
:100FF8005360284B01221A60FFF704FD0446244B76
:101008001B6813F0007F06D1FFF7FCFC001B0228C9
:10101800F5D9032035E0002033E0002031E0012B32
:1010280031D01B4B5B6803F48001E269914201D027
:10103800012026E003F03F02216A8A4201D0012004
:101048001FE0616A47F6C0721A40B2EB811F01D0F7
:10105800012016E003F44031A26A5208013AB1EBCC
:10106800024F01D001200CE003F07063E26AB3EB99
:10107800026F0AD0012004E001207047012000E03F
:10108800002002B070BD0120FBE70020F9E700BF97
:101098000038024060004742324B9B6803F00C0363
:1010A800042B5CD0082B01D02F4870472DE9F04B5A
:1010B8002C4B5A6802F03F025B6813F4800F2BD068
:1010C800284B5B68C3F388131E4600275C01002584
:1010D800E41A65EB0705A90141EA9461A001001B28
:1010E80061EB0501CB0043EA5073C400A01943EB40
:1010F80007014B0243EAD053440220461946002315
:10110800FFF766F8174B5B68C3F3014301335B00D5
:10111800B0FBF3F0BDE8F08B124B5B68C3F38813A8
:101128001E4600275C010025E41A65EB0705A901A6
:1011380041EA9461A001001B61EB0501CB0043EA81
:101148005073C400A01943EB07018B0243EA905384
:101158008402204619460023FFF73AF8D2E70348ED
:10116800704700BF003802400024F40000127A00E3
:10117800002800F09E8070B50446504B1B6803F0B1
:1011880007038B4209D2CBB24C4A1370136803F0A1
:1011980007038B4201D0012070BD236813F0020FB2
:1011A80017D013F0040F04D0454A936843F4E05372
:1011B8009360236813F0080F04D0414A936843F4FE
:1011C800604393603E4A936823F0F003A0680343AA
:1011D80093600D46236813F0010F32D06368012B2A
:1011E80021D09A1E012A25D9354A126812F0020F19
:1011F80061D033498A6822F0030213438B60FFF7FA
:1012080001FC06462E4B9B6803F00C036268B3EBA7
:10121800820F16D0FFF7F6FB801B41F28833984205
:10122800F0D90320B8E7264A126812F4003FE0D14B
:101238000120B1E7224A126812F0007FD9D10120BB
:10124800AAE71E4B1B6803F00703AB4209D9EAB2B1
:101258001A4B1A701B6803F00703AB4201D0012038
:101268009AE7236813F0040F06D0154A936823F40D
:10127800E053E1680B439360236813F0080F07D02D
:101288000F4A936823F46043216943EAC1039360DA
:10129800FFF702FF0A4B9B68C3F30313094AD35CA9
:1012A800D840094B1860094B1868FFF761FB00200C
:1012B80072E70120704701206EE700BF003C024042
:1012C80000380240901600080000002008000020A6
:1012D80090F83D30DBB2012B01D00120704702238A
:1012E80080F83D300268D36843F00103D360036897
:1012F800144A934218D0B3F1804F15D0A2F57C421E
:10130800934211D002F5806293420DD002F58062BB
:10131800934209D002F59A32934205D01A6842F0F6
:1013280001021A60002070479A6802F00702062A34
:1013380005D01A6842F001021A60002070470020A8
:10134800704700BF00000140704770477047704702
:1013580010B5044603681A6912F0020F11D0DA6852
:1013680012F0020F0DD06FF002021A610123037709
:1013780003689B6913F0030F70D0FFF7E6FF0023A3
:10138800237723681A6912F0040F12D0DA6812F072
:10139800040F0ED06FF004021A610223237723682A
:1013A8009B6913F4407F5FD02046FFF7CEFF0023F0
:1013B800237723681A6912F0080F12D0DA6812F03E
:1013C800080F0ED06FF008021A61042323772368F0
:1013D800DB6913F0030F4ED02046FFF7B6FF00235A
:1013E800237723681A6912F0100F12D0DA6812F006
:1013F800100F0ED06FF010021A61082323772368AC
:10140800DB6913F4407F3DD02046FFF79EFF0023A1
:10141800237723681A6912F0010F03D0DA6812F0F3
:10142800010F36D123681A6912F0800F03D0DA68E9
:1014380012F0800F34D123681A6912F0400F03D0DC
:10144800DA6812F0400F32D123681A6912F0200FBF
:1014580003D0DA6812F0200F30D110BDFFF774FF07
:101468002046FFF773FF8AE72046FFF76DFF204607
:10147800FFF76CFF9BE72046FFF766FF2046FFF764
:1014880065FFACE72046FFF75FFF2046FFF75EFFEA
:10149800BDE76FF001021A612046FFF7D9F8C1E7EE
:1014A8006FF080021A61204600F08AF8C3E76FF0F7
:1014B80040021A612046FFF74AFFC5E76FF0200295
:1014C8001A61204600F07BF8C7E700000368254A48
:1014D80090420ED0B0F1804F0BD0A2F57C429042E2
:1014E80007D002F58062904203D002F580629042F4
:1014F80003D123F070034A6813431A4A90421AD062
:10150800B0F1804F17D0A2F57C42904213D002F57B
:10151800806290420FD002F5806290420BD002F5B3
:101528009A32904207D002F58062904203D002F5C9
:101538008062904203D123F44073CA68134323F0B6
:1015480080034A69134303608B68C3620B68836234
:10155800044B984202D00123436170470B6903632F
:10156800F9E700BF0000014038B310B5044690F811
:101578003D30EBB1022384F83D30211D2068FFF790
:10158800A5FF012384F8463084F83E3084F83F30C4
:1015980084F8403084F8413084F8423084F843308D
:1015A80084F8443084F8453084F83D30002010BD7C
:1015B80080F83C30FFF7A2F9DCE70120704770475C
:1015C80070470000DFF834D00D480E490E4A00235A
:1015D80002E0D458C4500433C4188C42F9D30B4ADF
:1015E8000B4C002301E013600432A242FBD3FFF747
:1015F80047F900F011F8FFF7AFF870470000022034
:10160800000000200C000020B81600080C00002084
:10161800CC020020FEE7000070B50D4E0D4CA41B57
:10162800A4100025A54209D10B4E0C4C00F020F85F
:10163800A41BA4100025A54205D170BD56F825307D
:1016480098470135EEE756F8253098470135F2E717
:10165800B0160008B0160008B0160008B416000846
:1016680002440346934200D1704703F8011BF9E78F
:10167800F8B500BFF8BC08BC9E467047F8B500BF77
:08168800F8BC08BC9E46704747
:101690000000000000000000010203040607080922
:0816A000000000000102030438
:0816A80060EBFF7F0100000070
:0416B000BD01000870
:0416B4009901000890
:0C16B8000024F4000100000010000000FD
:04000005080015CD0D
:00000001FF
